{
  "_format": "hh-sol-artifact-1",
  "contractName": "TypeFundMarket",
  "sourceName": "contracts/TypeFundMarket.sol",
  "abi": [
    {
      "inputs": [
        {
          "internalType": "contract IEncryptionOracle",
          "name": "_oracle",
          "type": "address"
        }
      ],
      "stateMutability": "nonpayable",
      "type": "constructor"
    },
    {
      "inputs": [],
      "name": "CallbackNotAuthorized",
      "type": "error"
    },
    {
      "inputs": [],
      "name": "InsufficentFunds",
      "type": "error"
    },
    {
      "inputs": [],
      "name": "ListingDoesNotExist",
      "type": "error"
    },
    {
      "anonymous": false,
      "inputs": [
        {
          "indexed": true,
          "internalType": "uint256",
          "name": "requestId",
          "type": "uint256"
        },
        {
          "components": [
            {
              "components": [
                {
                  "internalType": "uint256",
                  "name": "x",
                  "type": "uint256"
                },
                {
                  "internalType": "uint256",
                  "name": "y",
                  "type": "uint256"
                }
              ],
              "internalType": "struct G1Point",
              "name": "random",
              "type": "tuple"
            },
            {
              "internalType": "uint256",
              "name": "cipher",
              "type": "uint256"
            },
            {
              "components": [
                {
                  "internalType": "uint256",
                  "name": "x",
                  "type": "uint256"
                },
                {
                  "internalType": "uint256",
                  "name": "y",
                  "type": "uint256"
                }
              ],
              "internalType": "struct G1Point",
              "name": "random2",
              "type": "tuple"
            },
            {
              "components": [
                {
                  "internalType": "uint256",
                  "name": "f",
                  "type": "uint256"
                },
                {
                  "internalType": "uint256",
                  "name": "e",
                  "type": "uint256"
                }
              ],
              "internalType": "struct DleqProof",
              "name": "dleq",
              "type": "tuple"
            }
          ],
          "indexed": false,
          "internalType": "struct Ciphertext",
          "name": "ciphertext",
          "type": "tuple"
        }
      ],
      "name": "ListingDecryption",
      "type": "event"
    },
    {
      "anonymous": false,
      "inputs": [
        {
          "indexed": true,
          "internalType": "address",
          "name": "seller",
          "type": "address"
        },
        {
          "indexed": true,
          "internalType": "uint256",
          "name": "cipherId",
          "type": "uint256"
        },
        {
          "indexed": false,
          "internalType": "string",
          "name": "name",
          "type": "string"
        },
        {
          "indexed": false,
          "internalType": "string",
          "name": "description",
          "type": "string"
        },
        {
          "indexed": false,
          "internalType": "uint256",
          "name": "price",
          "type": "uint256"
        },
        {
          "indexed": false,
          "internalType": "string",
          "name": "uri",
          "type": "string"
        }
      ],
      "name": "NewListing",
      "type": "event"
    },
    {
      "anonymous": false,
      "inputs": [
        {
          "indexed": true,
          "internalType": "address",
          "name": "buyer",
          "type": "address"
        },
        {
          "indexed": true,
          "internalType": "address",
          "name": "seller",
          "type": "address"
        },
        {
          "indexed": false,
          "internalType": "uint256",
          "name": "requestId",
          "type": "uint256"
        },
        {
          "indexed": false,
          "internalType": "uint256",
          "name": "cipherId",
          "type": "uint256"
        }
      ],
      "name": "NewSale",
      "type": "event"
    },
    {
      "inputs": [
        {
          "internalType": "uint256",
          "name": "cipherId",
          "type": "uint256"
        },
        {
          "components": [
            {
              "internalType": "uint256",
              "name": "x",
              "type": "uint256"
            },
            {
              "internalType": "uint256",
              "name": "y",
              "type": "uint256"
            }
          ],
          "internalType": "struct G1Point",
          "name": "buyerPublicKey",
          "type": "tuple"
        }
      ],
      "name": "buyListing",
      "outputs": [
        {
          "internalType": "uint256",
          "name": "",
          "type": "uint256"
        }
      ],
      "stateMutability": "payable",
      "type": "function"
    },
    {
      "inputs": [
        {
          "components": [
            {
              "components": [
                {
                  "internalType": "uint256",
                  "name": "x",
                  "type": "uint256"
                },
                {
                  "internalType": "uint256",
                  "name": "y",
                  "type": "uint256"
                }
              ],
              "internalType": "struct G1Point",
              "name": "random",
              "type": "tuple"
            },
            {
              "internalType": "uint256",
              "name": "cipher",
              "type": "uint256"
            },
            {
              "components": [
                {
                  "internalType": "uint256",
                  "name": "x",
                  "type": "uint256"
                },
                {
                  "internalType": "uint256",
                  "name": "y",
                  "type": "uint256"
                }
              ],
              "internalType": "struct G1Point",
              "name": "random2",
              "type": "tuple"
            },
            {
              "components": [
                {
                  "internalType": "uint256",
                  "name": "f",
                  "type": "uint256"
                },
                {
                  "internalType": "uint256",
                  "name": "e",
                  "type": "uint256"
                }
              ],
              "internalType": "struct DleqProof",
              "name": "dleq",
              "type": "tuple"
            }
          ],
          "internalType": "struct Ciphertext",
          "name": "cipher",
          "type": "tuple"
        },
        {
          "internalType": "string",
          "name": "name",
          "type": "string"
        },
        {
          "internalType": "string",
          "name": "description",
          "type": "string"
        },
        {
          "internalType": "uint256",
          "name": "price",
          "type": "uint256"
        },
        {
          "internalType": "string",
          "name": "uri",
          "type": "string"
        }
      ],
      "name": "createListing",
      "outputs": [
        {
          "internalType": "uint256",
          "name": "",
          "type": "uint256"
        }
      ],
      "stateMutability": "nonpayable",
      "type": "function"
    },
    {
      "inputs": [
        {
          "internalType": "uint256",
          "name": "",
          "type": "uint256"
        }
      ],
      "name": "listings",
      "outputs": [
        {
          "internalType": "address",
          "name": "seller",
          "type": "address"
        },
        {
          "internalType": "uint256",
          "name": "price",
          "type": "uint256"
        },
        {
          "internalType": "string",
          "name": "uri",
          "type": "string"
        }
      ],
      "stateMutability": "view",
      "type": "function"
    },
    {
      "inputs": [],
      "name": "oracle",
      "outputs": [
        {
          "internalType": "contract IEncryptionOracle",
          "name": "",
          "type": "address"
        }
      ],
      "stateMutability": "view",
      "type": "function"
    },
    {
      "inputs": [
        {
          "internalType": "uint256",
          "name": "requestId",
          "type": "uint256"
        },
        {
          "components": [
            {
              "components": [
                {
                  "internalType": "uint256",
                  "name": "x",
                  "type": "uint256"
                },
                {
                  "internalType": "uint256",
                  "name": "y",
                  "type": "uint256"
                }
              ],
              "internalType": "struct G1Point",
              "name": "random",
              "type": "tuple"
            },
            {
              "internalType": "uint256",
              "name": "cipher",
              "type": "uint256"
            },
            {
              "components": [
                {
                  "internalType": "uint256",
                  "name": "x",
                  "type": "uint256"
                },
                {
                  "internalType": "uint256",
                  "name": "y",
                  "type": "uint256"
                }
              ],
              "internalType": "struct G1Point",
              "name": "random2",
              "type": "tuple"
            },
            {
              "components": [
                {
                  "internalType": "uint256",
                  "name": "f",
                  "type": "uint256"
                },
                {
                  "internalType": "uint256",
                  "name": "e",
                  "type": "uint256"
                }
              ],
              "internalType": "struct DleqProof",
              "name": "dleq",
              "type": "tuple"
            }
          ],
          "internalType": "struct Ciphertext",
          "name": "cipher",
          "type": "tuple"
        }
      ],
      "name": "oracleResult",
      "outputs": [],
      "stateMutability": "nonpayable",
      "type": "function"
    },
    {
      "inputs": [
        {
          "internalType": "address",
          "name": "dest",
          "type": "address"
        }
      ],
      "name": "payments",
      "outputs": [
        {
          "internalType": "uint256",
          "name": "",
          "type": "uint256"
        }
      ],
      "stateMutability": "view",
      "type": "function"
    },
    {
      "inputs": [],
      "name": "publicKey",
      "outputs": [
        {
          "components": [
            {
              "internalType": "uint256",
              "name": "x",
              "type": "uint256"
            },
            {
              "internalType": "uint256",
              "name": "y",
              "type": "uint256"
            }
          ],
          "internalType": "struct G1Point",
          "name": "",
          "type": "tuple"
        }
      ],
      "stateMutability": "view",
      "type": "function"
    },
    {
      "inputs": [
        {
          "internalType": "address payable",
          "name": "payee",
          "type": "address"
        }
      ],
      "name": "withdrawPayments",
      "outputs": [],
      "stateMutability": "nonpayable",
      "type": "function"
    }
  ],
  "bytecode": "0x60a06040523480156200001157600080fd5b506040516200255238038062002552833981810160405281019062000037919062000169565b6040516200004590620000dd565b604051809103906000f08015801562000062573d6000803e3d6000fd5b5073ffffffffffffffffffffffffffffffffffffffff1660808173ffffffffffffffffffffffffffffffffffffffff1681525050806000806101000a81548173ffffffffffffffffffffffffffffffffffffffff021916908373ffffffffffffffffffffffffffffffffffffffff160217905550506200019b565b610ba180620019b183390190565b600080fd5b600073ffffffffffffffffffffffffffffffffffffffff82169050919050565b60006200011d82620000f0565b9050919050565b6000620001318262000110565b9050919050565b620001438162000124565b81146200014f57600080fd5b50565b600081519050620001638162000138565b92915050565b600060208284031215620001825762000181620000eb565b5b6000620001928482850162000152565b91505092915050565b6080516117ec620001c5600039600081816104f7015281816107d90152610a7e01526117ec6000f3fe60806040526004361061007b5760003560e01c80637dc0d1d01161004e5780637dc0d1d01461012d578063de74e57b14610158578063e2982c2114610197578063e2cbdb0b146101d45761007b565b806328db0ce21461008057806331b3eb94146100b057806340ceeee9146100d957806363ffab3114610102575b600080fd5b61009a60048036038101906100959190610b94565b610211565b6040516100a79190610be3565b60405180910390f35b3480156100bc57600080fd5b506100d760048036038101906100d29190610c5c565b6104f5565b005b3480156100e557600080fd5b5061010060048036038101906100fb9190610ca8565b610583565b005b34801561010e57600080fd5b50610117610644565b6040516101249190610d27565b60405180910390f35b34801561013957600080fd5b506101426106df565b60405161014f9190610da1565b60405180910390f35b34801561016457600080fd5b5061017f600480360381019061017a9190610dbc565b610703565b60405161018e93929190610e9a565b60405180910390f35b3480156101a357600080fd5b506101be60048036038101906101b99190610f04565b6107d5565b6040516101cb9190610be3565b60405180910390f35b3480156101e057600080fd5b506101fb60048036038101906101f69190610f96565b610878565b6040516102089190610be3565b60405180910390f35b600080600160008581526020019081526020016000206040518060600160405290816000820160009054906101000a900473ffffffffffffffffffffffffffffffffffffffff1673ffffffffffffffffffffffffffffffffffffffff1673ffffffffffffffffffffffffffffffffffffffff168152602001600182015481526020016002820180546102a2906110a5565b80601f01602080910402602001604051908101604052809291908181526020018280546102ce906110a5565b801561031b5780601f106102f05761010080835404028352916020019161031b565b820191906000526020600020905b8154815290600101906020018083116102fe57829003601f168201915b5050505050815250509050600073ffffffffffffffffffffffffffffffffffffffff16816000015173ffffffffffffffffffffffffffffffffffffffff1603610390576040517f6b559eca00000000000000000000000000000000000000000000000000000000815260040160405180910390fd5b80602001513410156103ce576040517f85e45adc00000000000000000000000000000000000000000000000000000000815260040160405180910390fd5b6103dc816000015134610a7c565b60008060009054906101000a900473ffffffffffffffffffffffffffffffffffffffff1673ffffffffffffffffffffffffffffffffffffffff1663b966507086866040518363ffffffff1660e01b815260040161043a92919061112c565b6020604051808303816000875af1158015610459573d6000803e3d6000fd5b505050506040513d601f19601f8201168201806040525081019061047d919061116a565b9050816000015173ffffffffffffffffffffffffffffffffffffffff163373ffffffffffffffffffffffffffffffffffffffff167fb1d43218dd0959b1632f21fa3b7aba88c41347f4eda5a08894f8aad1a9c44e8183886040516104e2929190611197565b60405180910390a3809250505092915050565b7f000000000000000000000000000000000000000000000000000000000000000073ffffffffffffffffffffffffffffffffffffffff166351cff8d9826040518263ffffffff1660e01b815260040161054e91906111cf565b600060405180830381600087803b15801561056857600080fd5b505af115801561057c573d6000803e3d6000fd5b5050505050565b60008054906101000a900473ffffffffffffffffffffffffffffffffffffffff1673ffffffffffffffffffffffffffffffffffffffff163373ffffffffffffffffffffffffffffffffffffffff1614610608576040517f11016bf300000000000000000000000000000000000000000000000000000000815260040160405180910390fd5b817f214b3339665a3ce77683b95ff0a22ec2f7c363198c5ac4110ab608fab3905d0a8260405161063891906112f3565b60405180910390a25050565b61064c610b0c565b60008054906101000a900473ffffffffffffffffffffffffffffffffffffffff1673ffffffffffffffffffffffffffffffffffffffff1663f20763676040518163ffffffff1660e01b81526004016040805180830381865afa1580156106b6573d6000803e3d6000fd5b505050506040513d601f19601f820116820180604052508101906106da91906113de565b905090565b60008054906101000a900473ffffffffffffffffffffffffffffffffffffffff1681565b60016020528060005260406000206000915090508060000160009054906101000a900473ffffffffffffffffffffffffffffffffffffffff1690806001015490806002018054610752906110a5565b80601f016020809104026020016040519081016040528092919081815260200182805461077e906110a5565b80156107cb5780601f106107a0576101008083540402835291602001916107cb565b820191906000526020600020905b8154815290600101906020018083116107ae57829003601f168201915b5050505050905083565b60007f000000000000000000000000000000000000000000000000000000000000000073ffffffffffffffffffffffffffffffffffffffff1663e3a9db1a836040518263ffffffff1660e01b8152600401610830919061140b565b602060405180830381865afa15801561084d573d6000803e3d6000fd5b505050506040513d601f19601f82011682018060405250810190610871919061116a565b9050919050565b60008060008054906101000a900473ffffffffffffffffffffffffffffffffffffffff1673ffffffffffffffffffffffffffffffffffffffff166326639c498b8686336040518563ffffffff1660e01b81526004016108da9493929190611473565b6020604051808303816000875af11580156108f9573d6000803e3d6000fd5b505050506040513d601f19601f8201168201806040525081019061091d919061116a565b905060405180606001604052803373ffffffffffffffffffffffffffffffffffffffff16815260200186815260200185858080601f016020809104026020016040519081016040528093929190818152602001838380828437600081840152601f19601f820116905080830192505050505050508152506001600083815260200190815260200160002060008201518160000160006101000a81548173ffffffffffffffffffffffffffffffffffffffff021916908373ffffffffffffffffffffffffffffffffffffffff160217905550602082015181600101556040820151816002019081610a0d9190611657565b50905050803373ffffffffffffffffffffffffffffffffffffffff167f94b011296c7be987023ce1d5c54ea1402211b56a3890c71d7f022466d1e19c7b8b8b8b8b8b8b8b604051610a649796959493929190611756565b60405180910390a38091505098975050505050505050565b7f000000000000000000000000000000000000000000000000000000000000000073ffffffffffffffffffffffffffffffffffffffff1663f340fa0182846040518363ffffffff1660e01b8152600401610ad6919061140b565b6000604051808303818588803b158015610aef57600080fd5b505af1158015610b03573d6000803e3d6000fd5b50505050505050565b604051806040016040528060008152602001600081525090565b6000604051905090565b600080fd5b600080fd5b6000819050919050565b610b4d81610b3a565b8114610b5857600080fd5b50565b600081359050610b6a81610b44565b92915050565b600080fd5b600060408284031215610b8b57610b8a610b70565b5b81905092915050565b60008060608385031215610bab57610baa610b30565b5b6000610bb985828601610b5b565b9250506020610bca85828601610b75565b9150509250929050565b610bdd81610b3a565b82525050565b6000602082019050610bf86000830184610bd4565b92915050565b600073ffffffffffffffffffffffffffffffffffffffff82169050919050565b6000610c2982610bfe565b9050919050565b610c3981610c1e565b8114610c4457600080fd5b50565b600081359050610c5681610c30565b92915050565b600060208284031215610c7257610c71610b30565b5b6000610c8084828501610c47565b91505092915050565b600060e08284031215610c9f57610c9e610b70565b5b81905092915050565b6000806101008385031215610cc057610cbf610b30565b5b6000610cce85828601610b5b565b9250506020610cdf85828601610c89565b9150509250929050565b610cf281610b3a565b82525050565b604082016000820151610d0e6000850182610ce9565b506020820151610d216020850182610ce9565b50505050565b6000604082019050610d3c6000830184610cf8565b92915050565b6000819050919050565b6000610d67610d62610d5d84610bfe565b610d42565b610bfe565b9050919050565b6000610d7982610d4c565b9050919050565b6000610d8b82610d6e565b9050919050565b610d9b81610d80565b82525050565b6000602082019050610db66000830184610d92565b92915050565b600060208284031215610dd257610dd1610b30565b5b6000610de084828501610b5b565b91505092915050565b6000610df482610bfe565b9050919050565b610e0481610de9565b82525050565b600081519050919050565b600082825260208201905092915050565b60005b83811015610e44578082015181840152602081019050610e29565b60008484015250505050565b6000601f19601f8301169050919050565b6000610e6c82610e0a565b610e768185610e15565b9350610e86818560208601610e26565b610e8f81610e50565b840191505092915050565b6000606082019050610eaf6000830186610dfb565b610ebc6020830185610bd4565b8181036040830152610ece8184610e61565b9050949350505050565b610ee181610de9565b8114610eec57600080fd5b50565b600081359050610efe81610ed8565b92915050565b600060208284031215610f1a57610f19610b30565b5b6000610f2884828501610eef565b91505092915050565b600080fd5b600080fd5b600080fd5b60008083601f840112610f5657610f55610f31565b5b8235905067ffffffffffffffff811115610f7357610f72610f36565b5b602083019150836001820283011115610f8f57610f8e610f3b565b5b9250929050565b600080600080600080600080610160898b031215610fb757610fb6610b30565b5b6000610fc58b828c01610c89565b98505060e089013567ffffffffffffffff811115610fe657610fe5610b35565b5b610ff28b828c01610f40565b975097505061010089013567ffffffffffffffff81111561101657611015610b35565b5b6110228b828c01610f40565b95509550506101206110368b828c01610b5b565b93505061014089013567ffffffffffffffff81111561105857611057610b35565b5b6110648b828c01610f40565b92509250509295985092959890939650565b7f4e487b7100000000000000000000000000000000000000000000000000000000600052602260045260246000fd5b600060028204905060018216806110bd57607f821691505b6020821081036110d0576110cf611076565b5b50919050565b60006110e56020840184610b5b565b905092915050565b604082016110fe60008301836110d6565b61110b6000850182610ce9565b5061111960208301836110d6565b6111266020850182610ce9565b50505050565b60006060820190506111416000830185610bd4565b61114e60208301846110ed565b9392505050565b60008151905061116481610b44565b92915050565b6000602082840312156111805761117f610b30565b5b600061118e84828501611155565b91505092915050565b60006040820190506111ac6000830185610bd4565b6111b96020830184610bd4565b9392505050565b6111c981610c1e565b82525050565b60006020820190506111e460008301846111c0565b92915050565b600082905092915050565b6040820161120660008301836110d6565b6112136000850182610ce9565b5061122160208301836110d6565b61122e6020850182610ce9565b50505050565b600082905092915050565b6040820161125060008301836110d6565b61125d6000850182610ce9565b5061126b60208301836110d6565b6112786020850182610ce9565b50505050565b60e0820161128f60008301836111ea565b61129c60008501826111f5565b506112aa60408301836110d6565b6112b76040850182610ce9565b506112c560608301836111ea565b6112d260608501826111f5565b506112e060a0830183611234565b6112ed60a085018261123f565b50505050565b600060e082019050611308600083018461127e565b92915050565b600080fd5b7f4e487b7100000000000000000000000000000000000000000000000000000000600052604160045260246000fd5b61134b82610e50565b810181811067ffffffffffffffff8211171561136a57611369611313565b5b80604052505050565b600061137d610b26565b90506113898282611342565b919050565b6000604082840312156113a4576113a361130e565b5b6113ae6040611373565b905060006113be84828501611155565b60008301525060206113d284828501611155565b60208301525092915050565b6000604082840312156113f4576113f3610b30565b5b60006114028482850161138e565b91505092915050565b60006020820190506114206000830184610dfb565b92915050565b600082825260208201905092915050565b82818337600083830152505050565b60006114528385611426565b935061145f838584611437565b61146883610e50565b840190509392505050565b600061012082019050611489600083018761127e565b81810360e083015261149c818587611446565b90506114ac610100830184610dfb565b95945050505050565b60008190508160005260206000209050919050565b60006020601f8301049050919050565b600082821b905092915050565b6000600883026115177fffffffffffffffffffffffffffffffffffffffffffffffffffffffffffffffff826114da565b61152186836114da565b95508019841693508086168417925050509392505050565b600061155461154f61154a84610b3a565b610d42565b610b3a565b9050919050565b6000819050919050565b61156e83611539565b61158261157a8261155b565b8484546114e7565b825550505050565b600090565b61159761158a565b6115a2818484611565565b505050565b5b818110156115c6576115bb60008261158f565b6001810190506115a8565b5050565b601f82111561160b576115dc816114b5565b6115e5846114ca565b810160208510156115f4578190505b611608611600856114ca565b8301826115a7565b50505b505050565b600082821c905092915050565b600061162e60001984600802611610565b1980831691505092915050565b6000611647838361161d565b9150826002028217905092915050565b61166082610e0a565b67ffffffffffffffff81111561167957611678611313565b5b61168382546110a5565b61168e8282856115ca565b600060209050601f8311600181146116c157600084156116af578287015190505b6116b9858261163b565b865550611721565b601f1984166116cf866114b5565b60005b828110156116f7578489015182556001820191506020850194506020810190506116d2565b868310156117145784890151611710601f89168261161d565b8355505b6001600288020188555050505b505050505050565b60006117358385610e15565b9350611742838584611437565b61174b83610e50565b840190509392505050565b6000608082019050818103600083015261177181898b611729565b90508181036020830152611786818789611729565b90506117956040830186610bd4565b81810360608301526117a8818486611729565b90509897505050505050505056fea2646970667358221220251d10e50cb3ae059b4bea632a1f96aec00bd10c6a8ea944e8852d3c8b945b2364736f6c63430008110033608060405234801561001057600080fd5b5061002d61002261003260201b60201c565b61003a60201b60201c565b6100fe565b600033905090565b60008060009054906101000a900473ffffffffffffffffffffffffffffffffffffffff169050816000806101000a81548173ffffffffffffffffffffffffffffffffffffffff021916908373ffffffffffffffffffffffffffffffffffffffff1602179055508173ffffffffffffffffffffffffffffffffffffffff168173ffffffffffffffffffffffffffffffffffffffff167f8be0079c531659141344cd1fd0a4f28419497f9722a3daafe3b4186f6b6457e060405160405180910390a35050565b610a948061010d6000396000f3fe6080604052600436106100555760003560e01c806351cff8d91461005a578063715018a6146100835780638da5cb5b1461009a578063e3a9db1a146100c5578063f2fde38b14610102578063f340fa011461012b575b600080fd5b34801561006657600080fd5b50610081600480360381019061007c91906106b2565b610147565b005b34801561008f57600080fd5b50610098610253565b005b3480156100a657600080fd5b506100af610267565b6040516100bc9190610700565b60405180910390f35b3480156100d157600080fd5b506100ec60048036038101906100e79190610747565b610290565b6040516100f9919061078d565b60405180910390f35b34801561010e57600080fd5b5061012960048036038101906101249190610747565b6102d9565b005b61014560048036038101906101409190610747565b61035c565b005b61014f610411565b6000600160008373ffffffffffffffffffffffffffffffffffffffff1673ffffffffffffffffffffffffffffffffffffffff1681526020019081526020016000205490506000600160008473ffffffffffffffffffffffffffffffffffffffff1673ffffffffffffffffffffffffffffffffffffffff16815260200190815260200160002081905550610201818373ffffffffffffffffffffffffffffffffffffffff1661048f90919063ffffffff16565b8173ffffffffffffffffffffffffffffffffffffffff167f7084f5476618d8e60b11ef0d7d3f06914655adb8793e28ff7f018d4c76d505d582604051610247919061078d565b60405180910390a25050565b61025b610411565b6102656000610583565b565b60008060009054906101000a900473ffffffffffffffffffffffffffffffffffffffff16905090565b6000600160008373ffffffffffffffffffffffffffffffffffffffff1673ffffffffffffffffffffffffffffffffffffffff168152602001908152602001600020549050919050565b6102e1610411565b600073ffffffffffffffffffffffffffffffffffffffff168173ffffffffffffffffffffffffffffffffffffffff1603610350576040517f08c379a00000000000000000000000000000000000000000000000000000000081526004016103479061082b565b60405180910390fd5b61035981610583565b50565b610364610411565b600034905080600160008473ffffffffffffffffffffffffffffffffffffffff1673ffffffffffffffffffffffffffffffffffffffff16815260200190815260200160002060008282546103b8919061087a565b925050819055508173ffffffffffffffffffffffffffffffffffffffff167f2da466a7b24304f47e87fa2e1e5a81b9831ce54fec19055ce277ca2f39ba42c482604051610405919061078d565b60405180910390a25050565b610419610647565b73ffffffffffffffffffffffffffffffffffffffff16610437610267565b73ffffffffffffffffffffffffffffffffffffffff161461048d576040517f08c379a0000000000000000000000000000000000000000000000000000000008152600401610484906108fa565b60405180910390fd5b565b804710156104d2576040517f08c379a00000000000000000000000000000000000000000000000000000000081526004016104c990610966565b60405180910390fd5b60008273ffffffffffffffffffffffffffffffffffffffff16826040516104f8906109b7565b60006040518083038185875af1925050503d8060008114610535576040519150601f19603f3d011682016040523d82523d6000602084013e61053a565b606091505b505090508061057e576040517f08c379a000000000000000000000000000000000000000000000000000000000815260040161057590610a3e565b60405180910390fd5b505050565b60008060009054906101000a900473ffffffffffffffffffffffffffffffffffffffff169050816000806101000a81548173ffffffffffffffffffffffffffffffffffffffff021916908373ffffffffffffffffffffffffffffffffffffffff1602179055508173ffffffffffffffffffffffffffffffffffffffff168173ffffffffffffffffffffffffffffffffffffffff167f8be0079c531659141344cd1fd0a4f28419497f9722a3daafe3b4186f6b6457e060405160405180910390a35050565b600033905090565b600080fd5b600073ffffffffffffffffffffffffffffffffffffffff82169050919050565b600061067f82610654565b9050919050565b61068f81610674565b811461069a57600080fd5b50565b6000813590506106ac81610686565b92915050565b6000602082840312156106c8576106c761064f565b5b60006106d68482850161069d565b91505092915050565b60006106ea82610654565b9050919050565b6106fa816106df565b82525050565b600060208201905061071560008301846106f1565b92915050565b610724816106df565b811461072f57600080fd5b50565b6000813590506107418161071b565b92915050565b60006020828403121561075d5761075c61064f565b5b600061076b84828501610732565b91505092915050565b6000819050919050565b61078781610774565b82525050565b60006020820190506107a2600083018461077e565b92915050565b600082825260208201905092915050565b7f4f776e61626c653a206e6577206f776e657220697320746865207a65726f206160008201527f6464726573730000000000000000000000000000000000000000000000000000602082015250565b60006108156026836107a8565b9150610820826107b9565b604082019050919050565b6000602082019050818103600083015261084481610808565b9050919050565b7f4e487b7100000000000000000000000000000000000000000000000000000000600052601160045260246000fd5b600061088582610774565b915061089083610774565b92508282019050808211156108a8576108a761084b565b5b92915050565b7f4f776e61626c653a2063616c6c6572206973206e6f7420746865206f776e6572600082015250565b60006108e46020836107a8565b91506108ef826108ae565b602082019050919050565b60006020820190508181036000830152610913816108d7565b9050919050565b7f416464726573733a20696e73756666696369656e742062616c616e6365000000600082015250565b6000610950601d836107a8565b915061095b8261091a565b602082019050919050565b6000602082019050818103600083015261097f81610943565b9050919050565b600081905092915050565b50565b60006109a1600083610986565b91506109ac82610991565b600082019050919050565b60006109c282610994565b9150819050919050565b7f416464726573733a20756e61626c6520746f2073656e642076616c75652c207260008201527f6563697069656e74206d61792068617665207265766572746564000000000000602082015250565b6000610a28603a836107a8565b9150610a33826109cc565b604082019050919050565b60006020820190508181036000830152610a5781610a1b565b905091905056fea2646970667358221220ca3de30085a63aa09ef1f0b177769d20de27370b698f0d54e46194a9605d3bcb64736f6c63430008110033",
  "linkReferences": {},
  "deployedLinkReferences": {}
}