{
  "_format": "hh-sol-artifact-1",
  "contractName": "TypeFundDAO",
  "sourceName": "contracts/TypeFundDAO.sol",
  "abi": [
    {
      "inputs": [
        {
          "internalType": "address[]",
          "name": "_owners",
          "type": "address[]"
        },
        {
          "internalType": "uint256",
          "name": "_numConfirmationsRequired",
          "type": "uint256"
        }
      ],
      "stateMutability": "nonpayable",
      "type": "constructor"
    },
    {
      "inputs": [],
      "name": "AUTHORIZE_MESSAGE_METHOD_NUM",
      "outputs": [
        {
          "internalType": "uint64",
          "name": "",
          "type": "uint64"
        }
      ],
      "stateMutability": "view",
      "type": "function"
    },
    {
      "inputs": [
        {
          "internalType": "bytes",
          "name": "",
          "type": "bytes"
        },
        {
          "internalType": "bytes",
          "name": "",
          "type": "bytes"
        }
      ],
      "name": "cidProviders",
      "outputs": [
        {
          "internalType": "bool",
          "name": "",
          "type": "bool"
        }
      ],
      "stateMutability": "view",
      "type": "function"
    },
    {
      "inputs": [
        {
          "internalType": "bytes",
          "name": "",
          "type": "bytes"
        }
      ],
      "name": "cidSet",
      "outputs": [
        {
          "internalType": "bool",
          "name": "",
          "type": "bool"
        }
      ],
      "stateMutability": "view",
      "type": "function"
    },
    {
      "inputs": [
        {
          "internalType": "bytes",
          "name": "",
          "type": "bytes"
        }
      ],
      "name": "cidSizes",
      "outputs": [
        {
          "internalType": "uint256",
          "name": "",
          "type": "uint256"
        }
      ],
      "stateMutability": "view",
      "type": "function"
    },
    {
      "inputs": [
        {
          "internalType": "uint256",
          "name": "_txIndex",
          "type": "uint256"
        }
      ],
      "name": "confirmTransaction",
      "outputs": [],
      "stateMutability": "nonpayable",
      "type": "function"
    },
    {
      "inputs": [
        {
          "internalType": "uint256",
          "name": "_txIndex",
          "type": "uint256"
        }
      ],
      "name": "executeTransaction",
      "outputs": [],
      "stateMutability": "nonpayable",
      "type": "function"
    },
    {
      "inputs": [],
      "name": "getOwners",
      "outputs": [
        {
          "internalType": "address[]",
          "name": "",
          "type": "address[]"
        }
      ],
      "stateMutability": "view",
      "type": "function"
    },
    {
      "inputs": [
        {
          "internalType": "uint256",
          "name": "_txIndex",
          "type": "uint256"
        }
      ],
      "name": "getTransaction",
      "outputs": [
        {
          "internalType": "bytes",
          "name": "cidraw",
          "type": "bytes"
        },
        {
          "internalType": "uint256",
          "name": "size",
          "type": "uint256"
        },
        {
          "internalType": "bool",
          "name": "executed",
          "type": "bool"
        },
        {
          "internalType": "uint256",
          "name": "numConfirmations",
          "type": "uint256"
        }
      ],
      "stateMutability": "view",
      "type": "function"
    },
    {
      "inputs": [],
      "name": "getTransactionCount",
      "outputs": [
        {
          "internalType": "uint256",
          "name": "",
          "type": "uint256"
        }
      ],
      "stateMutability": "view",
      "type": "function"
    },
    {
      "inputs": [
        {
          "internalType": "uint64",
          "name": "",
          "type": "uint64"
        },
        {
          "internalType": "uint64",
          "name": "method",
          "type": "uint64"
        },
        {
          "internalType": "bytes",
          "name": "params",
          "type": "bytes"
        }
      ],
      "name": "handle_filecoin_method",
      "outputs": [],
      "stateMutability": "nonpayable",
      "type": "function"
    },
    {
      "inputs": [
        {
          "internalType": "uint256",
          "name": "",
          "type": "uint256"
        },
        {
          "internalType": "address",
          "name": "",
          "type": "address"
        }
      ],
      "name": "isConfirmed",
      "outputs": [
        {
          "internalType": "bool",
          "name": "",
          "type": "bool"
        }
      ],
      "stateMutability": "view",
      "type": "function"
    },
    {
      "inputs": [
        {
          "internalType": "address",
          "name": "",
          "type": "address"
        }
      ],
      "name": "isOwner",
      "outputs": [
        {
          "internalType": "bool",
          "name": "",
          "type": "bool"
        }
      ],
      "stateMutability": "view",
      "type": "function"
    },
    {
      "inputs": [],
      "name": "numConfirmationsRequired",
      "outputs": [
        {
          "internalType": "uint256",
          "name": "",
          "type": "uint256"
        }
      ],
      "stateMutability": "view",
      "type": "function"
    },
    {
      "inputs": [
        {
          "internalType": "uint256",
          "name": "",
          "type": "uint256"
        }
      ],
      "name": "owners",
      "outputs": [
        {
          "internalType": "address",
          "name": "",
          "type": "address"
        }
      ],
      "stateMutability": "view",
      "type": "function"
    },
    {
      "inputs": [
        {
          "internalType": "uint256",
          "name": "_txIndex",
          "type": "uint256"
        }
      ],
      "name": "revokeConfirmation",
      "outputs": [],
      "stateMutability": "nonpayable",
      "type": "function"
    },
    {
      "inputs": [
        {
          "internalType": "bytes",
          "name": "_cidraw",
          "type": "bytes"
        },
        {
          "internalType": "uint256",
          "name": "_size",
          "type": "uint256"
        }
      ],
      "name": "submitTransaction",
      "outputs": [],
      "stateMutability": "nonpayable",
      "type": "function"
    },
    {
      "inputs": [
        {
          "internalType": "uint256",
          "name": "",
          "type": "uint256"
        }
      ],
      "name": "transactions",
      "outputs": [
        {
          "internalType": "bytes",
          "name": "cidraw",
          "type": "bytes"
        },
        {
          "internalType": "uint256",
          "name": "size",
          "type": "uint256"
        },
        {
          "internalType": "bool",
          "name": "executed",
          "type": "bool"
        },
        {
          "internalType": "uint256",
          "name": "numConfirmations",
          "type": "uint256"
        }
      ],
      "stateMutability": "view",
      "type": "function"
    },
    {
      "stateMutability": "payable",
      "type": "receive"
    }
  ],
  "bytecode": "0x60806040523480156200001157600080fd5b50604051620036c7380380620036c783398181016040528101906200003791906200050e565b60008251116200007e576040517f08c379a00000000000000000000000000000000000000000000000000000000081526004016200007590620005d5565b60405180910390fd5b60008111801562000090575081518111155b620000d2576040517f08c379a0000000000000000000000000000000000000000000000000000000008152600401620000c9906200066d565b60405180910390fd5b60005b8251811015620002d5576000838281518110620000f757620000f66200068f565b5b60200260200101519050600073ffffffffffffffffffffffffffffffffffffffff168173ffffffffffffffffffffffffffffffffffffffff160362000173576040517f08c379a00000000000000000000000000000000000000000000000000000000081526004016200016a906200070e565b60405180910390fd5b600460008273ffffffffffffffffffffffffffffffffffffffff1673ffffffffffffffffffffffffffffffffffffffff16815260200190815260200160002060009054906101000a900460ff161562000203576040517f08c379a0000000000000000000000000000000000000000000000000000000008152600401620001fa9062000780565b60405180910390fd5b6001600460008373ffffffffffffffffffffffffffffffffffffffff1673ffffffffffffffffffffffffffffffffffffffff16815260200190815260200160002060006101000a81548160ff0219169083151502179055506003819080600181540180825580915050600190039060005260206000200160009091909190916101000a81548173ffffffffffffffffffffffffffffffffffffffff021916908373ffffffffffffffffffffffffffffffffffffffff160217905550508080620002cc90620007d1565b915050620000d5565b508060058190555050506200081e565b6000604051905090565b600080fd5b600080fd5b600080fd5b6000601f19601f8301169050919050565b7f4e487b7100000000000000000000000000000000000000000000000000000000600052604160045260246000fd5b6200034982620002fe565b810181811067ffffffffffffffff821117156200036b576200036a6200030f565b5b80604052505050565b600062000380620002e5565b90506200038e82826200033e565b919050565b600067ffffffffffffffff821115620003b157620003b06200030f565b5b602082029050602081019050919050565b600080fd5b600073ffffffffffffffffffffffffffffffffffffffff82169050919050565b6000620003f482620003c7565b9050919050565b6200040681620003e7565b81146200041257600080fd5b50565b6000815190506200042681620003fb565b92915050565b6000620004436200043d8462000393565b62000374565b90508083825260208201905060208402830185811115620004695762000468620003c2565b5b835b8181101562000496578062000481888262000415565b8452602084019350506020810190506200046b565b5050509392505050565b600082601f830112620004b857620004b7620002f9565b5b8151620004ca8482602086016200042c565b91505092915050565b6000819050919050565b620004e881620004d3565b8114620004f457600080fd5b50565b6000815190506200050881620004dd565b92915050565b60008060408385031215620005285762000527620002ef565b5b600083015167ffffffffffffffff811115620005495762000548620002f4565b5b6200055785828601620004a0565b92505060206200056a85828601620004f7565b9150509250929050565b600082825260208201905092915050565b7f6f776e6572732072657175697265640000000000000000000000000000000000600082015250565b6000620005bd600f8362000574565b9150620005ca8262000585565b602082019050919050565b60006020820190508181036000830152620005f081620005ae565b9050919050565b7f696e76616c6964206e756d626572206f6620726571756972656420636f6e666960008201527f726d6174696f6e73000000000000000000000000000000000000000000000000602082015250565b60006200065560288362000574565b91506200066282620005f7565b604082019050919050565b60006020820190508181036000830152620006888162000646565b9050919050565b7f4e487b7100000000000000000000000000000000000000000000000000000000600052603260045260246000fd5b7f696e76616c6964206f776e657200000000000000000000000000000000000000600082015250565b6000620006f6600d8362000574565b91506200070382620006be565b602082019050919050565b600060208201905081810360008301526200072981620006e7565b9050919050565b7f6f776e6572206e6f7420756e6971756500000000000000000000000000000000600082015250565b60006200076860108362000574565b9150620007758262000730565b602082019050919050565b600060208201905081810360008301526200079b8162000759565b9050919050565b7f4e487b7100000000000000000000000000000000000000000000000000000000600052601160045260246000fd5b6000620007de82620004d3565b91507fffffffffffffffffffffffffffffffffffffffffffffffffffffffffffffffff8203620008135762000812620007a2565b5b600182019050919050565b612e99806200082e6000396000f3fe6080604052600436106101025760003560e01c8063868e10c411610095578063c01a8c8411610064578063c01a8c84146103a4578063c3bd579b146103cd578063d0549b85146103f8578063d73c86e314610423578063ee22610b1461044c57610109565b8063868e10c4146102d35780638f8a6d8f146102fc5780639ace38c214610339578063a0e67e2b1461037957610109565b806333ea3dc8116100d157806333ea3dc8146101dc5780633d7650b21461021c5780636fc6a7481461025957806380f59a651461029657610109565b8063025e7c271461010e57806320ea8d861461014b5780632e7700f0146101745780632f54bf6e1461019f57610109565b3661010957005b600080fd5b34801561011a57600080fd5b5061013560048036038101906101309190611dc5565b610475565b6040516101429190611e33565b60405180910390f35b34801561015757600080fd5b50610172600480360381019061016d9190611dc5565b6104b4565b005b34801561018057600080fd5b5061018961074a565b6040516101969190611e5d565b60405180910390f35b3480156101ab57600080fd5b506101c660048036038101906101c19190611ea4565b610757565b6040516101d39190611eec565b60405180910390f35b3480156101e857600080fd5b5061020360048036038101906101fe9190611dc5565b610777565b6040516102139493929190611f97565b60405180910390f35b34801561022857600080fd5b50610243600480360381019061023e9190612118565b61085f565b6040516102509190611eec565b60405180910390f35b34801561026557600080fd5b50610280600480360381019061027b9190612161565b610895565b60405161028d9190611eec565b60405180910390f35b3480156102a257600080fd5b506102bd60048036038101906102b891906121d9565b6108f0565b6040516102ca9190611eec565b60405180910390f35b3480156102df57600080fd5b506102fa60048036038101906102f591906122b9565b61091f565b005b34801561030857600080fd5b50610323600480360381019061031e9190612118565b6109c4565b6040516103309190611e5d565b60405180910390f35b34801561034557600080fd5b50610360600480360381019061035b9190611dc5565b6109f2565b6040516103709493929190611f97565b60405180910390f35b34801561038557600080fd5b5061038e610ac7565b60405161039b91906123eb565b60405180910390f35b3480156103b057600080fd5b506103cb60048036038101906103c69190611dc5565b610b55565b005b3480156103d957600080fd5b506103e2610dee565b6040516103ef919061241c565b60405180910390f35b34801561040457600080fd5b5061040d610df6565b60405161041a9190611e5d565b60405180910390f35b34801561042f57600080fd5b5061044a60048036038101906104459190612437565b610dfc565b005b34801561045857600080fd5b50610473600480360381019061046e9190611dc5565b610f28565b005b6003818154811061048557600080fd5b906000526020600020016000915054906101000a900473ffffffffffffffffffffffffffffffffffffffff1681565b600460003373ffffffffffffffffffffffffffffffffffffffff1673ffffffffffffffffffffffffffffffffffffffff16815260200190815260200160002060009054906101000a900460ff16610540576040517f08c379a0000000000000000000000000000000000000000000000000000000008152600401610537906124f0565b60405180910390fd5b806007805490508110610588576040517f08c379a000000000000000000000000000000000000000000000000000000000815260040161057f9061255c565b60405180910390fd5b816007818154811061059d5761059c61257c565b5b906000526020600020906004020160020160009054906101000a900460ff16156105fc576040517f08c379a00000000000000000000000000000000000000000000000000000000081526004016105f3906125f7565b60405180910390fd5b6000600784815481106106125761061161257c565b5b906000526020600020906004020190506006600085815260200190815260200160002060003373ffffffffffffffffffffffffffffffffffffffff1673ffffffffffffffffffffffffffffffffffffffff16815260200190815260200160002060009054906101000a900460ff166106bf576040517f08c379a00000000000000000000000000000000000000000000000000000000081526004016106b690612663565b60405180910390fd5b60018160030160008282546106d491906126b2565b9250508190555060006006600086815260200190815260200160002060003373ffffffffffffffffffffffffffffffffffffffff1673ffffffffffffffffffffffffffffffffffffffff16815260200190815260200160002060006101000a81548160ff02191690831515021790555050505050565b6000600780549050905090565b60046020528060005260406000206000915054906101000a900460ff1681565b6060600080600080600786815481106107935761079261257c565b5b906000526020600020906004020190508060000181600101548260020160009054906101000a900460ff1683600301548380546107cf90612715565b80601f01602080910402602001604051908101604052809291908181526020018280546107fb90612715565b80156108485780601f1061081d57610100808354040283529160200191610848565b820191906000526020600020905b81548152906001019060200180831161082b57829003601f168201915b505050505093509450945094509450509193509193565b6000818051602081018201805184825260208301602085012081835280955050505050506000915054906101000a900460ff1681565b600282805160208101820180518482526020830160208501208183528095505050505050818051602081018201805184825260208301602085012081835280955050505050506000915091509054906101000a900460ff1681565b60066020528160005260406000206020528060005260406000206000915091509054906101000a900460ff1681565b639d8b067867ffffffffffffffff168367ffffffffffffffff16036109835736600061094b848461119c565b91509150366000366000806109608787611352565b94509450945094509450610977858585858561181d565b505050505050506109be565b6040517f08c379a00000000000000000000000000000000000000000000000000000000081526004016109b5906127b8565b60405180910390fd5b50505050565b6001818051602081018201805184825260208301602085012081835280955050505050506000915090505481565b60078181548110610a0257600080fd5b9060005260206000209060040201600091509050806000018054610a2590612715565b80601f0160208091040260200160405190810160405280929190818152602001828054610a5190612715565b8015610a9e5780601f10610a7357610100808354040283529160200191610a9e565b820191906000526020600020905b815481529060010190602001808311610a8157829003601f168201915b5050505050908060010154908060020160009054906101000a900460ff16908060030154905084565b60606003805480602002602001604051908101604052809291908181526020018280548015610b4b57602002820191906000526020600020905b8160009054906101000a900473ffffffffffffffffffffffffffffffffffffffff1673ffffffffffffffffffffffffffffffffffffffff1681526020019060010190808311610b01575b5050505050905090565b600460003373ffffffffffffffffffffffffffffffffffffffff1673ffffffffffffffffffffffffffffffffffffffff16815260200190815260200160002060009054906101000a900460ff16610be1576040517f08c379a0000000000000000000000000000000000000000000000000000000008152600401610bd8906124f0565b60405180910390fd5b806007805490508110610c29576040517f08c379a0000000000000000000000000000000000000000000000000000000008152600401610c209061255c565b60405180910390fd5b8160078181548110610c3e57610c3d61257c565b5b906000526020600020906004020160020160009054906101000a900460ff1615610c9d576040517f08c379a0000000000000000000000000000000000000000000000000000000008152600401610c94906125f7565b60405180910390fd5b826006600082815260200190815260200160002060003373ffffffffffffffffffffffffffffffffffffffff1673ffffffffffffffffffffffffffffffffffffffff16815260200190815260200160002060009054906101000a900460ff1615610d3c576040517f08c379a0000000000000000000000000000000000000000000000000000000008152600401610d3390612824565b60405180910390fd5b600060078581548110610d5257610d5161257c565b5b906000526020600020906004020190506001816003016000828254610d779190612844565b9250508190555060016006600087815260200190815260200160002060003373ffffffffffffffffffffffffffffffffffffffff1673ffffffffffffffffffffffffffffffffffffffff16815260200190815260200160002060006101000a81548160ff0219169083151502179055505050505050565b639d8b067881565b60055481565b600460003373ffffffffffffffffffffffffffffffffffffffff1673ffffffffffffffffffffffffffffffffffffffff16815260200190815260200160002060009054906101000a900460ff16610e88576040517f08c379a0000000000000000000000000000000000000000000000000000000008152600401610e7f906124f0565b60405180910390fd5b60076040518060800160405280848152602001838152602001600015158152602001600081525090806001815401808255809150506001900390600052602060002090600402016000909190919091506000820151816000019081610eed9190612a24565b506020820151816001015560408201518160020160006101000a81548160ff0219169083151502179055506060820151816003015550505050565b600460003373ffffffffffffffffffffffffffffffffffffffff1673ffffffffffffffffffffffffffffffffffffffff16815260200190815260200160002060009054906101000a900460ff16610fb4576040517f08c379a0000000000000000000000000000000000000000000000000000000008152600401610fab906124f0565b60405180910390fd5b806007805490508110610ffc576040517f08c379a0000000000000000000000000000000000000000000000000000000008152600401610ff39061255c565b60405180910390fd5b81600781815481106110115761101061257c565b5b906000526020600020906004020160020160009054906101000a900460ff1615611070576040517f08c379a0000000000000000000000000000000000000000000000000000000008152600401611067906125f7565b60405180910390fd5b6000600784815481106110865761108561257c565b5b90600052602060002090600402019050600554816003015410156110df576040517f08c379a00000000000000000000000000000000000000000000000000000000081526004016110d690612b42565b60405180910390fd5b60018160020160006101000a81548160ff02191690831515021790555061119681600001805461110e90612715565b80601f016020809104026020016040519081016040528092919081815260200182805461113a90612715565b80156111875780601f1061115c57610100808354040283529160200191611187565b820191906000526020600020905b81548152906001019060200180831161116a57829003601f168201915b50505050508260010154611995565b50505050565b36600080600090507f8200000000000000000000000000000000000000000000000000000000000000858560008181106111d9576111d861257c565b5b9050013560f81c60f81b7effffffffffffffffffffffffffffffffffffffffffffffffffffffffffffff19161461121357611212612b62565b5b6001816112209190612844565b905060008061127387878080601f016020809104026020016040519081016040528093929190818152602001838380828437600081840152601f19601f82011690508083019250505050505050846119f3565b8167ffffffffffffffff169150809550819350829450505050600260ff168260ff16146112a3576112a2612b62565b5b80836112af9190612844565b92506112ff87878080601f016020809104026020016040519081016040528093929190818152602001838380828437600081840152601f19601f82011690508083019250505050505050846119f3565b8167ffffffffffffffff169150809550819350829450505050600260ff168260ff161461132f5761132e612b62565b5b86868490898990509261134493929190612b9b565b945094505050509250929050565b3660003660008060007f8b0000000000000000000000000000000000000000000000000000000000000088888381811061138f5761138e61257c565b5b9050013560f81c60f81b7effffffffffffffffffffffffffffffffffffffffffffffffffffffffffffff1916146113c9576113c8612b62565b5b6001816113d69190612844565b90507fd80000000000000000000000000000000000000000000000000000000000000088888381811061140c5761140b61257c565b5b9050013560f81c60f81b7effffffffffffffffffffffffffffffffffffffffffffffffffffffffffffff19161461144657611445612b62565b5b6001816114539190612844565b90507f2a000000000000000000000000000000000000000000000000000000000000008888838181106114895761148861257c565b5b9050013560f81c60f81b7effffffffffffffffffffffffffffffffffffffffffffffffffffffffffffff1916146114c3576114c2612b62565b5b6001816114d09190612844565b90506000806115238a8a8080601f016020809104026020016040519081016040528093929190818152602001838380828437600081840152601f19601f82011690508083019250505050505050846119f3565b8167ffffffffffffffff169150809550819350829450505050600260ff168260ff161461155357611552612b62565b5b8989849083866115639190612844565b9261157093929190612b9b565b9750975080836115809190612844565b92506115d08a8a8080601f016020809104026020016040519081016040528093929190818152602001838380828437600081840152601f19601f82011690508083019250505050505050846119f3565b8167ffffffffffffffff169150809550819650829450505050600060ff168260ff1614611600576115ff612b62565b5b7ff4000000000000000000000000000000000000000000000000000000000000008a8a858181106116345761163361257c565b5b9050013560f81c60f81b7effffffffffffffffffffffffffffffffffffffffffffffffffffffffffffff191614806116c957507ff5000000000000000000000000000000000000000000000000000000000000008a8a8581811061169b5761169a61257c565b5b9050013560f81c60f81b7effffffffffffffffffffffffffffffffffffffffffffffffffffffffffffff1916145b6116d6576116d5612b62565b5b6001836116e39190612844565b92506117338a8a8080601f016020809104026020016040519081016040528093929190818152602001838380828437600081840152601f19601f82011690508083019250505050505050846119f3565b8167ffffffffffffffff169150809550819350829450505050600260ff168260ff161461176357611762612b62565b5b808361176f9190612844565b92506117bf8a8a8080601f016020809104026020016040519081016040528093929190818152602001838380828437600081840152601f19601f82011690508083019250505050505050846119f3565b8167ffffffffffffffff169150809550819350829450505050600260ff168260ff16146117ef576117ee612b62565b5b8989849083866117ff9190612844565b9261180c93929190612b9b565b955095505050509295509295909350565b6000858560405161182f929190612c06565b908152602001604051809103902060009054906101000a900460ff1661188a576040517f08c379a000000000000000000000000000000000000000000000000000000000815260040161188190612c91565b60405180910390fd5b806001868660405161189d929190612c06565b908152602001604051809103902054146118ec576040517f08c379a00000000000000000000000000000000000000000000000000000000081526004016118e390612cfd565b60405180910390fd5b6118f885858585611b81565b611937576040517f08c379a000000000000000000000000000000000000000000000000000000000815260040161192e90612d8f565b60405180910390fd5b60016002868660405161194b929190612c06565b90815260200160405180910390208484604051611969929190612c06565b908152602001604051809103902060006101000a81548160ff0219169083151502179055505050505050565b60016000836040516119a79190612de0565b908152602001604051809103902060006101000a81548160ff021916908315150217905550806001836040516119dd9190612de0565b9081526020016040518091039020819055505050565b600080600080611a038686611bdf565b9050600185611a129190612844565b94506000600560e0831660ff16901c90506000601f83169050601c8160ff1610611a3f57611a3e612b62565b5b60188160ff161015611a62578181888160ff169150955095509550505050611b7a565b60188160ff1603611ab7576000611a798989611bdf565b9050600188611a889190612844565b975060188160ff161015611a9f57611a9e612b62565b5b8281898160ff16915096509650965050505050611b7a565b60198160ff1603611af8576000611ace8989611c46565b9050600288611add9190612844565b97508281898161ffff16915096509650965050505050611b7a565b601a8160ff1603611b3b576000611b0f8989611cad565b9050600488611b1e9190612844565b97508281898163ffffffff16915096509650965050505050611b7a565b601b8160ff1614611b4f57611b4e612b62565b5b6000611b5b8989611d14565b9050600888611b6a9190612844565b9750828189965096509650505050505b9250925092565b60008060028686604051611b96929190612c06565b90815260200160405180910390208484604051611bb4929190612c06565b908152602001604051809103902060009054906101000a900460ff1690508015915050949350505050565b6000600182611bee9190612844565b83511015611c31576040517f08c379a0000000000000000000000000000000000000000000000000000000008152600401611c2890612e43565b60405180910390fd5b60008260010184015190508091505092915050565b6000600282611c559190612844565b83511015611c98576040517f08c379a0000000000000000000000000000000000000000000000000000000008152600401611c8f90612e43565b60405180910390fd5b60008260020184015190508091505092915050565b6000600482611cbc9190612844565b83511015611cff576040517f08c379a0000000000000000000000000000000000000000000000000000000008152600401611cf690612e43565b60405180910390fd5b60008260040184015190508091505092915050565b6000600882611d239190612844565b83511015611d66576040517f08c379a0000000000000000000000000000000000000000000000000000000008152600401611d5d90612e43565b60405180910390fd5b60008260080184015190508091505092915050565b6000604051905090565b600080fd5b600080fd5b6000819050919050565b611da281611d8f565b8114611dad57600080fd5b50565b600081359050611dbf81611d99565b92915050565b600060208284031215611ddb57611dda611d85565b5b6000611de984828501611db0565b91505092915050565b600073ffffffffffffffffffffffffffffffffffffffff82169050919050565b6000611e1d82611df2565b9050919050565b611e2d81611e12565b82525050565b6000602082019050611e486000830184611e24565b92915050565b611e5781611d8f565b82525050565b6000602082019050611e726000830184611e4e565b92915050565b611e8181611e12565b8114611e8c57600080fd5b50565b600081359050611e9e81611e78565b92915050565b600060208284031215611eba57611eb9611d85565b5b6000611ec884828501611e8f565b91505092915050565b60008115159050919050565b611ee681611ed1565b82525050565b6000602082019050611f016000830184611edd565b92915050565b600081519050919050565b600082825260208201905092915050565b60005b83811015611f41578082015181840152602081019050611f26565b60008484015250505050565b6000601f19601f8301169050919050565b6000611f6982611f07565b611f738185611f12565b9350611f83818560208601611f23565b611f8c81611f4d565b840191505092915050565b60006080820190508181036000830152611fb18187611f5e565b9050611fc06020830186611e4e565b611fcd6040830185611edd565b611fda6060830184611e4e565b95945050505050565b600080fd5b600080fd5b7f4e487b7100000000000000000000000000000000000000000000000000000000600052604160045260246000fd5b61202582611f4d565b810181811067ffffffffffffffff8211171561204457612043611fed565b5b80604052505050565b6000612057611d7b565b9050612063828261201c565b919050565b600067ffffffffffffffff82111561208357612082611fed565b5b61208c82611f4d565b9050602081019050919050565b82818337600083830152505050565b60006120bb6120b684612068565b61204d565b9050828152602081018484840111156120d7576120d6611fe8565b5b6120e2848285612099565b509392505050565b600082601f8301126120ff576120fe611fe3565b5b813561210f8482602086016120a8565b91505092915050565b60006020828403121561212e5761212d611d85565b5b600082013567ffffffffffffffff81111561214c5761214b611d8a565b5b612158848285016120ea565b91505092915050565b6000806040838503121561217857612177611d85565b5b600083013567ffffffffffffffff81111561219657612195611d8a565b5b6121a2858286016120ea565b925050602083013567ffffffffffffffff8111156121c3576121c2611d8a565b5b6121cf858286016120ea565b9150509250929050565b600080604083850312156121f0576121ef611d85565b5b60006121fe85828601611db0565b925050602061220f85828601611e8f565b9150509250929050565b600067ffffffffffffffff82169050919050565b61223681612219565b811461224157600080fd5b50565b6000813590506122538161222d565b92915050565b600080fd5b600080fd5b60008083601f84011261227957612278611fe3565b5b8235905067ffffffffffffffff81111561229657612295612259565b5b6020830191508360018202830111156122b2576122b161225e565b5b9250929050565b600080600080606085870312156122d3576122d2611d85565b5b60006122e187828801612244565b94505060206122f287828801612244565b935050604085013567ffffffffffffffff81111561231357612312611d8a565b5b61231f87828801612263565b925092505092959194509250565b600081519050919050565b600082825260208201905092915050565b6000819050602082019050919050565b61236281611e12565b82525050565b60006123748383612359565b60208301905092915050565b6000602082019050919050565b60006123988261232d565b6123a28185612338565b93506123ad83612349565b8060005b838110156123de5781516123c58882612368565b97506123d083612380565b9250506001810190506123b1565b5085935050505092915050565b60006020820190508181036000830152612405818461238d565b905092915050565b61241681612219565b82525050565b6000602082019050612431600083018461240d565b92915050565b6000806040838503121561244e5761244d611d85565b5b600083013567ffffffffffffffff81111561246c5761246b611d8a565b5b612478858286016120ea565b925050602061248985828601611db0565b9150509250929050565b600082825260208201905092915050565b7f6e6f74206f776e65720000000000000000000000000000000000000000000000600082015250565b60006124da600983612493565b91506124e5826124a4565b602082019050919050565b60006020820190508181036000830152612509816124cd565b9050919050565b7f747820646f6573206e6f74206578697374000000000000000000000000000000600082015250565b6000612546601183612493565b915061255182612510565b602082019050919050565b6000602082019050818103600083015261257581612539565b9050919050565b7f4e487b7100000000000000000000000000000000000000000000000000000000600052603260045260246000fd5b7f747820616c726561647920657865637574656400000000000000000000000000600082015250565b60006125e1601383612493565b91506125ec826125ab565b602082019050919050565b60006020820190508181036000830152612610816125d4565b9050919050565b7f7478206e6f7420636f6e6669726d656400000000000000000000000000000000600082015250565b600061264d601083612493565b915061265882612617565b602082019050919050565b6000602082019050818103600083015261267c81612640565b9050919050565b7f4e487b7100000000000000000000000000000000000000000000000000000000600052601160045260246000fd5b60006126bd82611d8f565b91506126c883611d8f565b92508282039050818111156126e0576126df612683565b5b92915050565b7f4e487b7100000000000000000000000000000000000000000000000000000000600052602260045260246000fd5b6000600282049050600182168061272d57607f821691505b6020821081036127405761273f6126e6565b5b50919050565b7f7468652066696c65636f696e206d6574686f642074686174207761732063616c60008201527f6c6564206973206e6f742068616e646c65640000000000000000000000000000602082015250565b60006127a2603283612493565b91506127ad82612746565b604082019050919050565b600060208201905081810360008301526127d181612795565b9050919050565b7f747820616c726561647920636f6e6669726d6564000000000000000000000000600082015250565b600061280e601483612493565b9150612819826127d8565b602082019050919050565b6000602082019050818103600083015261283d81612801565b9050919050565b600061284f82611d8f565b915061285a83611d8f565b925082820190508082111561287257612871612683565b5b92915050565b60008190508160005260206000209050919050565b60006020601f8301049050919050565b600082821b905092915050565b6000600883026128da7fffffffffffffffffffffffffffffffffffffffffffffffffffffffffffffffff8261289d565b6128e4868361289d565b95508019841693508086168417925050509392505050565b6000819050919050565b600061292161291c61291784611d8f565b6128fc565b611d8f565b9050919050565b6000819050919050565b61293b83612906565b61294f61294782612928565b8484546128aa565b825550505050565b600090565b612964612957565b61296f818484612932565b505050565b5b818110156129935761298860008261295c565b600181019050612975565b5050565b601f8211156129d8576129a981612878565b6129b28461288d565b810160208510156129c1578190505b6129d56129cd8561288d565b830182612974565b50505b505050565b600082821c905092915050565b60006129fb600019846008026129dd565b1980831691505092915050565b6000612a1483836129ea565b9150826002028217905092915050565b612a2d82611f07565b67ffffffffffffffff811115612a4657612a45611fed565b5b612a508254612715565b612a5b828285612997565b600060209050601f831160018114612a8e5760008415612a7c578287015190505b612a868582612a08565b865550612aee565b601f198416612a9c86612878565b60005b82811015612ac457848901518255600182019150602085019450602081019050612a9f565b86831015612ae15784890151612add601f8916826129ea565b8355505b6001600288020188555050505b505050505050565b7f63616e6e6f742065786563757465207478000000000000000000000000000000600082015250565b6000612b2c601183612493565b9150612b3782612af6565b602082019050919050565b60006020820190508181036000830152612b5b81612b1f565b9050919050565b7f4e487b7100000000000000000000000000000000000000000000000000000000600052600160045260246000fd5b600080fd5b600080fd5b60008085851115612baf57612bae612b91565b5b83861115612bc057612bbf612b96565b5b6001850283019150848603905094509492505050565b600081905092915050565b6000612bed8385612bd6565b9350612bfa838584612099565b82840190509392505050565b6000612c13828486612be1565b91508190509392505050565b7f636964206d757374206265206164646564206265666f726520617574686f726960008201527f7a696e6700000000000000000000000000000000000000000000000000000000602082015250565b6000612c7b602483612493565b9150612c8682612c1f565b604082019050919050565b60006020820190508181036000830152612caa81612c6e565b9050919050565b7f646174612073697a65206d757374206d61746368206578706563746564000000600082015250565b6000612ce7601d83612493565b9150612cf282612cb1565b602082019050919050565b60006020820190508181036000830152612d1681612cda565b9050919050565b7f6465616c206661696c656420706f6c69637920636865636b3a2068617320707260008201527f6f766964657220616c726561647920636c61696d65642074686973206369643f602082015250565b6000612d79604083612493565b9150612d8482612d1d565b604082019050919050565b60006020820190508181036000830152612da881612d6c565b9050919050565b6000612dba82611f07565b612dc48185612bd6565b9350612dd4818560208601611f23565b80840191505092915050565b6000612dec8284612daf565b915081905092915050565b7f736c6963696e67206f7574206f662072616e6765000000000000000000000000600082015250565b6000612e2d601483612493565b9150612e3882612df7565b602082019050919050565b60006020820190508181036000830152612e5c81612e20565b905091905056fea2646970667358221220f75e493663c348ef5f9f9c00414388fcd11d9e02bd57cbd6b3fa29f7a485557d64736f6c63430008110033",
  "linkReferences": {},
  "deployedLinkReferences": {}
}